{
  "contractName": "Campaign",
  "abi": [
    {
      "inputs": [
        {
          "internalType": "address",
          "name": "creator",
          "type": "address"
        },
        {
          "internalType": "string",
          "name": "_title",
          "type": "string"
        },
        {
          "internalType": "uint256",
          "name": "_goal",
          "type": "uint256"
        },
        {
          "internalType": "string",
          "name": "_ipfsHash",
          "type": "string"
        }
      ],
      "stateMutability": "nonpayable",
      "type": "constructor"
    },
    {
      "anonymous": false,
      "inputs": [],
      "name": "CampaignClosed",
      "type": "event"
    },
    {
      "anonymous": false,
      "inputs": [
        {
          "indexed": true,
          "internalType": "address",
          "name": "donor",
          "type": "address"
        },
        {
          "indexed": false,
          "internalType": "uint256",
          "name": "amount",
          "type": "uint256"
        }
      ],
      "name": "DonationReceived",
      "type": "event"
    },
    {
      "inputs": [],
      "name": "closed",
      "outputs": [
        {
          "internalType": "bool",
          "name": "",
          "type": "bool"
        }
      ],
      "stateMutability": "view",
      "type": "function"
    },
    {
      "inputs": [
        {
          "internalType": "address",
          "name": "",
          "type": "address"
        }
      ],
      "name": "donations",
      "outputs": [
        {
          "internalType": "uint256",
          "name": "",
          "type": "uint256"
        }
      ],
      "stateMutability": "view",
      "type": "function"
    },
    {
      "inputs": [],
      "name": "goal",
      "outputs": [
        {
          "internalType": "uint256",
          "name": "",
          "type": "uint256"
        }
      ],
      "stateMutability": "view",
      "type": "function"
    },
    {
      "inputs": [],
      "name": "ipfsHash",
      "outputs": [
        {
          "internalType": "string",
          "name": "",
          "type": "string"
        }
      ],
      "stateMutability": "view",
      "type": "function"
    },
    {
      "inputs": [],
      "name": "owner",
      "outputs": [
        {
          "internalType": "address",
          "name": "",
          "type": "address"
        }
      ],
      "stateMutability": "view",
      "type": "function"
    },
    {
      "inputs": [],
      "name": "title",
      "outputs": [
        {
          "internalType": "string",
          "name": "",
          "type": "string"
        }
      ],
      "stateMutability": "view",
      "type": "function"
    },
    {
      "inputs": [],
      "name": "totalFunds",
      "outputs": [
        {
          "internalType": "uint256",
          "name": "",
          "type": "uint256"
        }
      ],
      "stateMutability": "view",
      "type": "function"
    },
    {
      "inputs": [],
      "name": "donate",
      "outputs": [],
      "stateMutability": "payable",
      "type": "function"
    },
    {
      "inputs": [],
      "name": "closeCampaign",
      "outputs": [],
      "stateMutability": "nonpayable",
      "type": "function"
    },
    {
      "inputs": [],
      "name": "withdrawFunds",
      "outputs": [],
      "stateMutability": "nonpayable",
      "type": "function"
    },
    {
      "inputs": [],
      "name": "getCampaignDetails",
      "outputs": [
        {
          "internalType": "string",
          "name": "",
          "type": "string"
        },
        {
          "internalType": "uint256",
          "name": "",
          "type": "uint256"
        },
        {
          "internalType": "uint256",
          "name": "",
          "type": "uint256"
        },
        {
          "internalType": "bool",
          "name": "",
          "type": "bool"
        },
        {
          "internalType": "string",
          "name": "",
          "type": "string"
        }
      ],
      "stateMutability": "view",
      "type": "function"
    },
    {
      "inputs": [
        {
          "internalType": "address",
          "name": "donor",
          "type": "address"
        }
      ],
      "name": "getDonations",
      "outputs": [
        {
          "internalType": "uint256",
          "name": "",
          "type": "uint256"
        }
      ],
      "stateMutability": "view",
      "type": "function"
    }
  ],
  "bytecode": "0x60806040523480156200001157600080fd5b5060405162000d5f38038062000d5f83398101604081905262000034916200014f565b600080546001600160a01b0319166001600160a01b03861617905560016200005d848262000274565b506002829055600462000071828262000274565b50506005805460ff191690555062000340915050565b634e487b7160e01b600052604160045260246000fd5b600082601f830112620000af57600080fd5b81516001600160401b0380821115620000cc57620000cc62000087565b604051601f8301601f19908116603f01168101908282118183101715620000f757620000f762000087565b81604052838152602092508660208588010111156200011557600080fd5b600091505b838210156200013957858201830151818301840152908201906200011a565b6000602085830101528094505050505092915050565b600080600080608085870312156200016657600080fd5b84516001600160a01b03811681146200017e57600080fd5b60208601519094506001600160401b03808211156200019c57600080fd5b620001aa888389016200009d565b9450604087015193506060870151915080821115620001c857600080fd5b50620001d7878288016200009d565b91505092959194509250565b600181811c90821680620001f857607f821691505b6020821081036200021957634e487b7160e01b600052602260045260246000fd5b50919050565b601f8211156200026f576000816000526020600020601f850160051c810160208610156200024a5750805b601f850160051c820191505b818110156200026b5782815560010162000256565b5050505b505050565b81516001600160401b0381111562000290576200029062000087565b620002a881620002a18454620001e3565b846200021f565b602080601f831160018114620002e05760008415620002c75750858301515b600019600386901b1c1916600185901b1785556200026b565b600085815260208120601f198616915b828110156200031157888601518255948401946001909101908401620002f0565b5085821015620003305787850151600019600388901b60f8161c191681555b5050505050600190811b01905550565b610a0f80620003506000396000f3fe6080604052600436106100c75760003560e01c80638da5cb5b11610074578063cc6cb19a1161004e578063cc6cb19a14610242578063d7557f181461026f578063ed88c68e1461028457600080fd5b80638da5cb5b146101c5578063968ed60014610217578063c623674f1461022d57600080fd5b806340193883116100a557806340193883146101635780634a79d50c14610179578063597e1fb51461019b57600080fd5b80630c611f24146100cc5780631910bdc2146100fb57806324600fc31461014c575b600080fd5b3480156100d857600080fd5b506100e161028c565b6040516100f29594939291906108b1565b60405180910390f35b34801561010757600080fd5b5061013e6101163660046108f6565b73ffffffffffffffffffffffffffffffffffffffff1660009081526006602052604090205490565b6040519081526020016100f2565b34801561015857600080fd5b506101616103d8565b005b34801561016f57600080fd5b5061013e60025481565b34801561018557600080fd5b5061018e61052c565b6040516100f29190610933565b3480156101a757600080fd5b506005546101b59060ff1681565b60405190151581526020016100f2565b3480156101d157600080fd5b506000546101f29073ffffffffffffffffffffffffffffffffffffffff1681565b60405173ffffffffffffffffffffffffffffffffffffffff90911681526020016100f2565b34801561022357600080fd5b5061013e60035481565b34801561023957600080fd5b5061018e6105ba565b34801561024e57600080fd5b5061013e61025d3660046108f6565b60066020526000908152604090205481565b34801561027b57600080fd5b506101616105c7565b6101616106fd565b6060600080600060606001600254600354600560009054906101000a900460ff1660048480546102bb90610946565b80601f01602080910402602001604051908101604052809291908181526020018280546102e790610946565b80156103345780601f1061030957610100808354040283529160200191610334565b820191906000526020600020905b81548152906001019060200180831161031757829003601f168201915b5050505050945080805461034790610946565b80601f016020809104026020016040519081016040528092919081815260200182805461037390610946565b80156103c05780601f10610395576101008083540402835291602001916103c0565b820191906000526020600020905b8154815290600101906020018083116103a357829003601f168201915b50505050509050945094509450945094509091929394565b60005473ffffffffffffffffffffffffffffffffffffffff16331461046a5760405162461bcd60e51b815260206004820152602560248201527f4f6e6c79207468652063616d706169676e206f776e65722063616e2063616c6c60448201527f207468697300000000000000000000000000000000000000000000000000000060648201526084015b60405180910390fd5b60055460ff166104e25760405162461bcd60e51b815260206004820152602a60248201527f43616d706169676e206d75737420626520636c6f736564206265666f7265207760448201527f69746864726177696e67000000000000000000000000000000000000000000006064820152608401610461565b6000805460405173ffffffffffffffffffffffffffffffffffffffff909116914780156108fc02929091818181858888f19350505050158015610529573d6000803e3d6000fd5b50565b6001805461053990610946565b80601f016020809104026020016040519081016040528092919081815260200182805461056590610946565b80156105b25780601f10610587576101008083540402835291602001916105b2565b820191906000526020600020905b81548152906001019060200180831161059557829003601f168201915b505050505081565b6004805461053990610946565b60005473ffffffffffffffffffffffffffffffffffffffff1633146106545760405162461bcd60e51b815260206004820152602560248201527f4f6e6c79207468652063616d706169676e206f776e65722063616e2063616c6c60448201527f20746869730000000000000000000000000000000000000000000000000000006064820152608401610461565b60055460ff16156106a75760405162461bcd60e51b815260206004820152601260248201527f43616d706169676e20697320636c6f73656400000000000000000000000000006044820152606401610461565b600580547fffffffffffffffffffffffffffffffffffffffffffffffffffffffffffffff001660011790556040517fb49a509a88f868a6f6fce6bfa9c1e1a7faf4e371b9ee245a8695b03ac90680c490600090a1565b60055460ff16156107505760405162461bcd60e51b815260206004820152601260248201527f43616d706169676e20697320636c6f73656400000000000000000000000000006044820152606401610461565b600034116107c65760405162461bcd60e51b815260206004820152602260248201527f446f6e6174696f6e206d7573742062652067726561746572207468616e207a6560448201527f726f0000000000000000000000000000000000000000000000000000000000006064820152608401610461565b33600090815260066020526040812080543492906107e5908490610999565b9250508190555034600360008282546107fe9190610999565b909155505060405134815233907f264f630d9efa0d07053a31163641d9fcc0adafc9d9e76f1c37c2ce3a558d2c529060200160405180910390a26002546003541061084b5761084b6105c7565b565b6000815180845260005b8181101561087357602081850181015186830182015201610857565b5060006020828601015260207fffffffffffffffffffffffffffffffffffffffffffffffffffffffffffffffe0601f83011685010191505092915050565b60a0815260006108c460a083018861084d565b866020840152856040840152841515606084015282810360808401526108ea818561084d565b98975050505050505050565b60006020828403121561090857600080fd5b813573ffffffffffffffffffffffffffffffffffffffff8116811461092c57600080fd5b9392505050565b60208152600061092c602083018461084d565b600181811c9082168061095a57607f821691505b602082108103610993577f4e487b7100000000000000000000000000000000000000000000000000000000600052602260045260246000fd5b50919050565b808201808211156109d3577f4e487b7100000000000000000000000000000000000000000000000000000000600052601160045260246000fd5b9291505056fea26469706673582212201b425965a91b9b1f893bd3e510caf631091c23c92e00b02993dd44f5e72e791064736f6c63430008170033",
  "immutableReferences": {},
  "source": "// SPDX-License-Identifier: MIT\r\npragma solidity ^0.8.23;\r\n\r\ncontract Campaign {\r\n    address public owner;\r\n    string public title;\r\n    uint public goal;\r\n    uint public totalFunds;\r\n    string public ipfsHash;\r\n    bool public closed;\r\n\r\n    mapping(address => uint) public donations;\r\n\r\n    event DonationReceived(address indexed donor, uint amount);\r\n    event CampaignClosed();\r\n\r\n    constructor(address creator, string memory _title, uint _goal, string memory _ipfsHash) {\r\n        owner = creator;\r\n        title = _title;\r\n        goal = _goal;\r\n        ipfsHash = _ipfsHash;\r\n        closed = false;\r\n    }\r\n\r\n    modifier onlyOwner() {\r\n        require(msg.sender == owner, \"Only the campaign owner can call this\");\r\n        _;\r\n    }\r\n\r\n    modifier isOpen() {\r\n        require(!closed, \"Campaign is closed\");\r\n        _;\r\n    }\r\n\r\n    function donate() public payable isOpen {\r\n        require(msg.value > 0, \"Donation must be greater than zero\");\r\n        donations[msg.sender] += msg.value;\r\n        totalFunds += msg.value;\r\n        emit DonationReceived(msg.sender, msg.value);\r\n\r\n        if (totalFunds >= goal) {\r\n            closeCampaign();\r\n        }\r\n    }\r\n\r\n    function closeCampaign() public onlyOwner isOpen {\r\n        closed = true;\r\n        emit CampaignClosed();\r\n    }\r\n\r\n    function withdrawFunds() public onlyOwner {\r\n        require(closed, \"Campaign must be closed before withdrawing\");\r\n        payable(owner).transfer(address(this).balance);\r\n    }\r\n\r\n    function getCampaignDetails() public view returns (string memory, uint, uint, bool, string memory) {\r\n        return (title, goal, totalFunds, closed, ipfsHash);\r\n    }\r\n\r\n    function getDonations(address donor) public view returns (uint) {\r\n        return donations[donor];\r\n    }\r\n}\r\n",
  "sourcePath": "D:\\Desktop\\BlockChainProject\\contracts\\Campaign.sol",
  "compiler": {
    "name": "solc",
    "version": "0.8.23+commit.f704f362.Emscripten.clang"
  },
  "schemaVersion": "3.4.16",
  "updatedAt": "2024-09-25T20:33:14.287Z",
  "devdoc": {
    "kind": "dev",
    "methods": {},
    "version": 1
  },
  "userdoc": {
    "kind": "user",
    "methods": {},
    "version": 1
  }
}